{
  "address": "0xDbF190055db23AFb3Dd73f8357eCDb67B5109D18",
  "abi": [
    {
      "inputs": [
        {
          "internalType": "contract IERC20",
          "name": "rewardsToken",
          "type": "address"
        },
        {
          "internalType": "contract IERC20",
          "name": "stakingToken",
          "type": "address"
        },
        {
          "internalType": "uint8",
          "name": "stakingTokenDecimals",
          "type": "uint8"
        },
        {
          "internalType": "uint256",
          "name": "periodStartTime",
          "type": "uint256"
        },
        {
          "internalType": "uint256",
          "name": "periodEndTime",
          "type": "uint256"
        }
      ],
      "stateMutability": "nonpayable",
      "type": "constructor"
    },
    {
      "anonymous": false,
      "inputs": [
        {
          "indexed": true,
          "internalType": "address",
          "name": "previousOwner",
          "type": "address"
        },
        {
          "indexed": true,
          "internalType": "address",
          "name": "newOwner",
          "type": "address"
        }
      ],
      "name": "OwnershipTransferred",
      "type": "event"
    },
    {
      "anonymous": false,
      "inputs": [
        {
          "indexed": false,
          "internalType": "address",
          "name": "account",
          "type": "address"
        }
      ],
      "name": "Paused",
      "type": "event"
    },
    {
      "anonymous": false,
      "inputs": [
        {
          "indexed": false,
          "internalType": "contract IERC20",
          "name": "token",
          "type": "address"
        },
        {
          "indexed": true,
          "internalType": "address",
          "name": "to",
          "type": "address"
        },
        {
          "indexed": false,
          "internalType": "uint256",
          "name": "amount",
          "type": "uint256"
        }
      ],
      "name": "Recovered",
      "type": "event"
    },
    {
      "anonymous": false,
      "inputs": [
        {
          "indexed": false,
          "internalType": "uint256",
          "name": "amount",
          "type": "uint256"
        }
      ],
      "name": "RewardAdded",
      "type": "event"
    },
    {
      "anonymous": false,
      "inputs": [
        {
          "indexed": true,
          "internalType": "address",
          "name": "account",
          "type": "address"
        },
        {
          "indexed": false,
          "internalType": "uint256",
          "name": "amount",
          "type": "uint256"
        }
      ],
      "name": "RewardPaid",
      "type": "event"
    },
    {
      "anonymous": false,
      "inputs": [
        {
          "indexed": true,
          "internalType": "address",
          "name": "account",
          "type": "address"
        },
        {
          "indexed": false,
          "internalType": "uint256",
          "name": "amount",
          "type": "uint256"
        }
      ],
      "name": "Staked",
      "type": "event"
    },
    {
      "anonymous": false,
      "inputs": [
        {
          "indexed": false,
          "internalType": "address",
          "name": "account",
          "type": "address"
        }
      ],
      "name": "Unpaused",
      "type": "event"
    },
    {
      "anonymous": false,
      "inputs": [
        {
          "indexed": true,
          "internalType": "address",
          "name": "account",
          "type": "address"
        },
        {
          "indexed": false,
          "internalType": "uint256",
          "name": "amount",
          "type": "uint256"
        }
      ],
      "name": "Withdrawn",
      "type": "event"
    },
    {
      "inputs": [],
      "name": "accruedRewardPerToken",
      "outputs": [
        {
          "internalType": "uint256",
          "name": "",
          "type": "uint256"
        }
      ],
      "stateMutability": "view",
      "type": "function"
    },
    {
      "inputs": [
        {
          "internalType": "uint256",
          "name": "amount",
          "type": "uint256"
        }
      ],
      "name": "addToRewardsAllocation",
      "outputs": [],
      "stateMutability": "nonpayable",
      "type": "function"
    },
    {
      "inputs": [
        {
          "internalType": "address",
          "name": "account",
          "type": "address"
        }
      ],
      "name": "balanceOf",
      "outputs": [
        {
          "internalType": "uint256",
          "name": "",
          "type": "uint256"
        }
      ],
      "stateMutability": "view",
      "type": "function"
    },
    {
      "inputs": [
        {
          "internalType": "address",
          "name": "account",
          "type": "address"
        }
      ],
      "name": "earned",
      "outputs": [
        {
          "internalType": "uint256",
          "name": "",
          "type": "uint256"
        }
      ],
      "stateMutability": "view",
      "type": "function"
    },
    {
      "inputs": [],
      "name": "exit",
      "outputs": [],
      "stateMutability": "nonpayable",
      "type": "function"
    },
    {
      "inputs": [],
      "name": "getReward",
      "outputs": [],
      "stateMutability": "nonpayable",
      "type": "function"
    },
    {
      "inputs": [],
      "name": "hasEnded",
      "outputs": [
        {
          "internalType": "bool",
          "name": "",
          "type": "bool"
        }
      ],
      "stateMutability": "view",
      "type": "function"
    },
    {
      "inputs": [],
      "name": "hasStarted",
      "outputs": [
        {
          "internalType": "bool",
          "name": "",
          "type": "bool"
        }
      ],
      "stateMutability": "view",
      "type": "function"
    },
    {
      "inputs": [],
      "name": "lastTimeRewardApplicable",
      "outputs": [
        {
          "internalType": "uint256",
          "name": "",
          "type": "uint256"
        }
      ],
      "stateMutability": "view",
      "type": "function"
    },
    {
      "inputs": [],
      "name": "owner",
      "outputs": [
        {
          "internalType": "address",
          "name": "",
          "type": "address"
        }
      ],
      "stateMutability": "view",
      "type": "function"
    },
    {
      "inputs": [],
      "name": "pause",
      "outputs": [],
      "stateMutability": "nonpayable",
      "type": "function"
    },
    {
      "inputs": [],
      "name": "paused",
      "outputs": [
        {
          "internalType": "bool",
          "name": "",
          "type": "bool"
        }
      ],
      "stateMutability": "view",
      "type": "function"
    },
    {
      "inputs": [],
      "name": "periodDuration",
      "outputs": [
        {
          "internalType": "uint256",
          "name": "",
          "type": "uint256"
        }
      ],
      "stateMutability": "view",
      "type": "function"
    },
    {
      "inputs": [],
      "name": "periodEndTime",
      "outputs": [
        {
          "internalType": "uint256",
          "name": "",
          "type": "uint256"
        }
      ],
      "stateMutability": "view",
      "type": "function"
    },
    {
      "inputs": [],
      "name": "periodStartTime",
      "outputs": [
        {
          "internalType": "uint256",
          "name": "",
          "type": "uint256"
        }
      ],
      "stateMutability": "view",
      "type": "function"
    },
    {
      "inputs": [
        {
          "internalType": "contract IERC20",
          "name": "token",
          "type": "address"
        },
        {
          "internalType": "address",
          "name": "to",
          "type": "address"
        },
        {
          "internalType": "uint256",
          "name": "amount",
          "type": "uint256"
        }
      ],
      "name": "recoverUnsupportedERC20",
      "outputs": [],
      "stateMutability": "nonpayable",
      "type": "function"
    },
    {
      "inputs": [],
      "name": "renounceOwnership",
      "outputs": [],
      "stateMutability": "nonpayable",
      "type": "function"
    },
    {
      "inputs": [],
      "name": "rewardsToken",
      "outputs": [
        {
          "internalType": "contract IERC20",
          "name": "",
          "type": "address"
        }
      ],
      "stateMutability": "view",
      "type": "function"
    },
    {
      "inputs": [
        {
          "internalType": "uint256",
          "name": "startTime",
          "type": "uint256"
        },
        {
          "internalType": "uint256",
          "name": "endTime",
          "type": "uint256"
        }
      ],
      "name": "setNewPeriod",
      "outputs": [],
      "stateMutability": "nonpayable",
      "type": "function"
    },
    {
      "inputs": [
        {
          "internalType": "uint256",
          "name": "amount",
          "type": "uint256"
        }
      ],
      "name": "stake",
      "outputs": [],
      "stateMutability": "nonpayable",
      "type": "function"
    },
    {
      "inputs": [],
      "name": "stakingToken",
      "outputs": [
        {
          "internalType": "contract IERC20",
          "name": "",
          "type": "address"
        }
      ],
      "stateMutability": "view",
      "type": "function"
    },
    {
      "inputs": [],
      "name": "stakingTokenDecimals",
      "outputs": [
        {
          "internalType": "uint8",
          "name": "",
          "type": "uint8"
        }
      ],
      "stateMutability": "view",
      "type": "function"
    },
    {
      "inputs": [],
      "name": "timeRemainingInPeriod",
      "outputs": [
        {
          "internalType": "uint256",
          "name": "",
          "type": "uint256"
        }
      ],
      "stateMutability": "view",
      "type": "function"
    },
    {
      "inputs": [],
      "name": "totalSupply",
      "outputs": [
        {
          "internalType": "uint256",
          "name": "",
          "type": "uint256"
        }
      ],
      "stateMutability": "view",
      "type": "function"
    },
    {
      "inputs": [
        {
          "internalType": "address",
          "name": "newOwner",
          "type": "address"
        }
      ],
      "name": "transferOwnership",
      "outputs": [],
      "stateMutability": "nonpayable",
      "type": "function"
    },
    {
      "inputs": [],
      "name": "unpause",
      "outputs": [],
      "stateMutability": "nonpayable",
      "type": "function"
    },
    {
      "inputs": [],
      "name": "updateReward",
      "outputs": [],
      "stateMutability": "nonpayable",
      "type": "function"
    },
    {
      "inputs": [
        {
          "internalType": "address",
          "name": "account",
          "type": "address"
        }
      ],
      "name": "updateRewardFor",
      "outputs": [],
      "stateMutability": "nonpayable",
      "type": "function"
    },
    {
      "inputs": [
        {
          "internalType": "uint256",
          "name": "amount",
          "type": "uint256"
        }
      ],
      "name": "withdraw",
      "outputs": [],
      "stateMutability": "nonpayable",
      "type": "function"
    }
  ],
  "transactionHash": "0x9c9e35ec0829adc953c2ae67111f20193a8f0db1bbc4ffd7cd5d2e72c11653a8",
  "args": [
    "0x42F319E7c1cc0638722a524B0351E6E7DD451f87",
    "0x835cA352b658500eAe43e76021E1f8dbb01D0acA",
    18,
    0,
    10
  ],
  "solcInputHash": "0xc7d116a5f2c88a6e656c683c019efc1edcfcbeedb3c644d41a2e34527cd6ca3a",
  "bytecode": "0x608060405234801561001057600080fd5b50604051611de1380380611de1833981810160405260a081101561003357600080fd5b5080516020820151604083015160608401516080909401516001600090815593949293919291859085908590610067610166565b600180546001600160a01b0319166001600160a01b038316908117909155604051919250906000907f8be0079c531659141344cd1fd0a4f28419497f9722a3daafe3b4186f6b6457e0908290a3506001805460ff60a01b19169055604d60ff8216106101045760405162461bcd60e51b815260040180806020018281038252603a815260200180611da7603a913960400191505060405180910390fd5b60038054600480546001600160a01b0319166001600160a01b03958616179055610100600160a81b03191661010094909316939093029190911760ff191660ff91909116908117909155600a0a600555600c91909155600b555061016a915050565b3390565b611c2e806101796000396000f3fe608060405234801561001057600080fd5b50600436106101ce5760003560e01c806381b7268411610104578063b9f7a7b5116100a2578063ecb70fb711610071578063ecb70fb7146103d7578063f2fde38b146103df578063f36c0a7214610405578063f46951991461040d576101ce565b8063b9f7a7b5146103a1578063bdf7acce146103bf578063d1af0c7d146103c7578063e9fad8ee146103cf576101ce565b80638da5cb5b116100de5780638da5cb5b1461036c578063996f093214610374578063a694fc3a1461037c578063b470aade14610399576101ce565b806381b72684146103085780638456cb591461032e57806386a86d4114610336576101ce565b806344691f7e11610171578063715018a61161014b578063715018a6146102cc57806372f702f3146102d4578063736d7c23146102f857806380faa57d14610300576101ce565b806344691f7e146102825780635c975abb1461029e57806370a08231146102a6576101ce565b80631d8df8f9116101ad5780631d8df8f9146102385780632e1a7d4d146102555780633d18b912146102725780633f4ba83a1461027a576101ce565b80628cc262146101d35780630c2d27ac1461020b57806318160ddd14610230575b600080fd5b6101f9600480360360208110156101e957600080fd5b50356001600160a01b0316610415565b60408051918252519081900360200190f35b61022e6004803603604081101561022157600080fd5b508035906020013561048d565b005b6101f96105c6565b61022e6004803603602081101561024e57600080fd5b50356105cd565b61022e6004803603602081101561026b57600080fd5b5035610681565b61022e6106d5565b61022e61072f565b61028a610791565b604080519115158252519081900360200190f35b61028a61079a565b6101f9600480360360208110156102bc57600080fd5b50356001600160a01b03166107aa565b61022e6107c5565b6102dc610867565b604080516001600160a01b039092168252519081900360200190f35b6101f9610876565b6101f96108e2565b61022e6004803603602081101561031e57600080fd5b50356001600160a01b0316610905565b61022e610959565b61022e6004803603606081101561034c57600080fd5b506001600160a01b038135811691602081013590911690604001356109b9565b6102dc610a21565b6101f9610a30565b61022e6004803603602081101561039257600080fd5b5035610a36565b6101f9610ae4565b6103a9610afd565b6040805160ff9092168252519081900360200190f35b6101f9610b06565b6102dc610b0c565b61022e610b20565b61028a610b73565b61022e600480360360208110156103f557600080fd5b50356001600160a01b0316610b7c565b61022e610c75565b6101f9610cd0565b6001600160a01b0381166000908152600260205260408120546104879061048161043d610d4b565b6001600160a01b03861660009081526009602052604090205461047b9061046c90610466610cd0565b90610d51565b610475886107aa565b90610d9a565b90610df3565b90610e35565b92915050565b610495610e8f565b6001546001600160a01b039081169116146104e5576040805162461bcd60e51b81526020600482018190526024820152600080516020611b29833981519152604482015290519081900360640190fd5b6104ed610791565b15806104fc57506104fc610b73565b6105375760405162461bcd60e51b815260040180806020018281038252604381526020018061198d6043913960600191505060405180910390fd5b8181116105755760405162461bcd60e51b8152600401808060200182810382526042815260200180611a4e6042913960600191505060405180910390fd5b4282116105b35760405162461bcd60e51b8152600401808060200182810382526051815260200180611ab76051913960600191505060405180910390fd5b6105bb610e93565b600c91909155600b55565b6007545b90565b60026000541415610613576040805162461bcd60e51b815260206004820152601f602482015260008051602061196d833981519152604482015290519081900360640190fd5b6002600055610620610e8f565b6001546001600160a01b03908116911614610670576040805162461bcd60e51b81526020600482018190526024820152600080516020611b29833981519152604482015290519081900360640190fd5b61067981610eab565b506001600055565b600260005414156106c7576040805162461bcd60e51b815260206004820152601f602482015260008051602061196d833981519152604482015290519081900360640190fd5b600260005561067981610f3b565b6002600054141561071b576040805162461bcd60e51b815260206004820152601f602482015260008051602061196d833981519152604482015290519081900360640190fd5b6002600055610728611054565b6001600055565b610737610e8f565b6001546001600160a01b03908116911614610787576040805162461bcd60e51b81526020600482018190526024820152600080516020611b29833981519152604482015290519081900360640190fd5b61078f611126565b565b600c5442101590565b600154600160a01b900460ff1690565b6001600160a01b031660009081526006602052604090205490565b6107cd610e8f565b6001546001600160a01b0390811691161461081d576040805162461bcd60e51b81526020600482018190526024820152600080516020611b29833981519152604482015290519081900360640190fd5b6001546040516000916001600160a01b0316907f8be0079c531659141344cd1fd0a4f28419497f9722a3daafe3b4186f6b6457e0908390a3600180546001600160a01b0319169055565b6004546001600160a01b031690565b6000610880610791565b6108bb5760405162461bcd60e51b8152600401808060200182810382526051815260200180611b496051913960600191505060405180910390fd5b6108c3610b73565b156108d0575060006105ca565b600b546108dd9042610d51565b905090565b60006108ec610791565b6108f95750600a546105ca565b6108dd42600b546111ce565b6002600054141561094b576040805162461bcd60e51b815260206004820152601f602482015260008051602061196d833981519152604482015290519081900360640190fd5b6002600055610679816111e4565b610961610e8f565b6001546001600160a01b039081169116146109b1576040805162461bcd60e51b81526020600482018190526024820152600080516020611b29833981519152604482015290519081900360640190fd5b61078f611223565b6109c1610e8f565b6001546001600160a01b03908116911614610a11576040805162461bcd60e51b81526020600482018190526024820152600080516020611b29833981519152604482015290519081900360640190fd5b610a1c8383836112b1565b505050565b6001546001600160a01b031690565b600b5490565b60026000541415610a7c576040805162461bcd60e51b815260206004820152601f602482015260008051602061196d833981519152604482015290519081900360640190fd5b6002600055600154600160a01b900460ff1615610ad3576040805162461bcd60e51b815260206004820152601060248201526f14185d5cd8589b194e881c185d5cd95960821b604482015290519081900360640190fd5b610679610ade610e8f565b826113af565b60006108dd600c54600b54610d5190919063ffffffff16565b60035460ff1690565b600c5490565b60035461010090046001600160a01b031690565b60026000541415610b66576040805162461bcd60e51b815260206004820152601f602482015260008051602061196d833981519152604482015290519081900360640190fd5b60026000556107286114df565b600b5442101590565b610b84610e8f565b6001546001600160a01b03908116911614610bd4576040805162461bcd60e51b81526020600482018190526024820152600080516020611b29833981519152604482015290519081900360640190fd5b6001600160a01b038116610c195760405162461bcd60e51b81526004018080602001828103825260268152602001806119d06026913960400191505060405180910390fd5b6001546040516001600160a01b038084169216907f8be0079c531659141344cd1fd0a4f28419497f9722a3daafe3b4186f6b6457e090600090a3600180546001600160a01b0319166001600160a01b0392909216919091179055565b60026000541415610cbb576040805162461bcd60e51b815260206004820152601f602482015260008051602061196d833981519152604482015290519081900360640190fd5b6002600055610728610ccb610e8f565b6111e4565b600080610cdb6105c6565b905080610cec5750506008546105ca565b6000610cfc600a546104666108e2565b905080610d0f57600854925050506105ca565b600d54600090610d1f9083610d9a565b9050610d43610d3a8461047b610d33610d4b565b8590610d9a565b60085490610e35565b935050505090565b60055490565b6000610d9383836040518060400160405280601e81526020017f536166654d6174683a207375627472616374696f6e206f766572666c6f77000081525061151c565b9392505050565b600082610da957506000610487565b82820282848281610db657fe5b0414610d935760405162461bcd60e51b8152600401808060200182810382526021815260200180611b086021913960400191505060405180910390fd5b6000610d9383836040518060400160405280601a81526020017f536166654d6174683a206469766973696f6e206279207a65726f0000000000008152506115b3565b600082820183811015610d93576040805162461bcd60e51b815260206004820152601b60248201527f536166654d6174683a206164646974696f6e206f766572666c6f770000000000604482015290519081900360640190fd5b3390565b610e9b610cd0565b600855610ea66108e2565b600a55565b610eb3610e93565b6000610ebd610791565b1580610ecc5750610ecc610b73565b15610ee057610ed9610ae4565b9050610eeb565b610ee8610876565b90505b610f01610ef88383610df3565b600d5490610e35565b600d556040805183815290517fde88a922e0d3b88b24e9623efeb464919c6bf9f66857a65e2bfcf2ce87a9433d9181900360200190a15050565b60008111610f7a5760405162461bcd60e51b8152600401808060200182810382526027815260200180611a906027913960400191505060405180910390fd5b610f85610ccb610e8f565b600754610f929082610d51565b600755610fc58160066000610fa5610e8f565b6001600160a01b0316815260208101919091526040016000205490610d51565b60066000610fd1610e8f565b6001600160a01b03168152602081019190915260400160002055611009610ff6610e8f565b6004546001600160a01b03169083611618565b611011610e8f565b6001600160a01b03167f7084f5476618d8e60b11ef0d7d3f06914655adb8793e28ff7f018d4c76d505d5826040518082815260200191505060405180910390a250565b61105f610ccb610e8f565b60006002600061106d610e8f565b6001600160a01b03168152602081019190915260400160002054905080156111235760006002600061109d610e8f565b6001600160a01b031681526020810191909152604001600020556110da6110c2610e8f565b60035461010090046001600160a01b03169083611618565b6110e2610e8f565b6001600160a01b03167fe2403640ba68fed3a2f88b7557551d1993f84b99bb10ff833f0cf8db0c5e0486826040518082815260200191505060405180910390a25b50565b600154600160a01b900460ff1661117b576040805162461bcd60e51b815260206004820152601460248201527314185d5cd8589b194e881b9bdd081c185d5cd95960621b604482015290519081900360640190fd5b6001805460ff60a01b191690557f5db9ee0a495bf2e6ff9c91a7834c1ba4fdd244a5e8aa4e537bd38aeae4b073aa6111b1610e8f565b604080516001600160a01b039092168252519081900360200190a1565b60008183106111dd5781610d93565b5090919050565b6111ec610e93565b6111f581610415565b6001600160a01b03909116600090815260026020908152604080832093909355600854600990915291902055565b600154600160a01b900460ff1615611275576040805162461bcd60e51b815260206004820152601060248201526f14185d5cd8589b194e881c185d5cd95960821b604482015290519081900360640190fd5b6001805460ff60a01b1916600160a01b1790557f62e78cea01bee320cd4e420270b5ea74000d11b0c9f74754ebdbfc544b05a2586111b1610e8f565b6004546001600160a01b03848116911614156112fe5760405162461bcd60e51b81526004018080602001828103825260348152602001806119396034913960400191505060405180910390fd5b6003546001600160a01b038481166101009092041614156113505760405162461bcd60e51b8152600401808060200182810382526034815260200180611a1a6034913960400191505060405180910390fd5b6113646001600160a01b0384168383611618565b604080516001600160a01b038581168252602082018490528251908516927ffff3b3844276f57024e0b42afec1a37f75db36511e43819a4f2a63ab7862b648928290030190a2505050565b6001600160a01b0382166113f45760405162461bcd60e51b8152600401808060200182810382526035815260200180611b9a6035913960400191505060405180910390fd5b600081116114335760405162461bcd60e51b81526004018080602001828103825260248152602001806119f66024913960400191505060405180910390fd5b61143c826111e4565b6007546114499082610e35565b6007556001600160a01b03821660009081526006602052604090205461146f9082610e35565b6001600160a01b0380841660009081526006602052604090209190915560045461149c911683308461166a565b6040805182815290516001600160a01b038416917f9e71bc8eea02a63969f509818f2dafb9254532904319f9dbda79b67bd34a5f3d919081900360200190a25050565b611514600660006114ee610e8f565b6001600160a01b03166001600160a01b0316815260200190815260200160002054610f3b565b61078f611054565b600081848411156115ab5760405162461bcd60e51b81526004018080602001828103825283818151815260200191508051906020019080838360005b83811015611570578181015183820152602001611558565b50505050905090810190601f16801561159d5780820380516001836020036101000a031916815260200191505b509250505060405180910390fd5b505050900390565b600081836116025760405162461bcd60e51b8152602060048201818152835160248401528351909283926044909101919085019080838360008315611570578181015183820152602001611558565b50600083858161160e57fe5b0495945050505050565b604080516001600160a01b038416602482015260448082018490528251808303909101815260649091019091526020810180516001600160e01b031663a9059cbb60e01b179052610a1c9084906116ca565b604080516001600160a01b0380861660248301528416604482015260648082018490528251808303909101815260849091019091526020810180516001600160e01b03166323b872dd60e01b1790526116c49085906116ca565b50505050565b606061171f826040518060400160405280602081526020017f5361666545524332303a206c6f772d6c6576656c2063616c6c206661696c6564815250856001600160a01b031661177b9092919063ffffffff16565b805190915015610a1c5780806020019051602081101561173e57600080fd5b5051610a1c5760405162461bcd60e51b815260040180806020018281038252602a815260200180611bcf602a913960400191505060405180910390fd5b606061178a8484600085611792565b949350505050565b606061179d856118ff565b6117ee576040805162461bcd60e51b815260206004820152601d60248201527f416464726573733a2063616c6c20746f206e6f6e2d636f6e7472616374000000604482015290519081900360640190fd5b60006060866001600160a01b031685876040518082805190602001908083835b6020831061182d5780518252601f19909201916020918201910161180e565b6001836020036101000a03801982511681845116808217855250505050505090500191505060006040518083038185875af1925050503d806000811461188f576040519150601f19603f3d011682016040523d82523d6000602084013e611894565b606091505b509150915081156118a857915061178a9050565b8051156118b85780518082602001fd5b60405162461bcd60e51b8152602060048201818152865160248401528651879391928392604401919085019080838360008315611570578181015183820152602001611558565b6000813f7fc5d2460186f7233c927e7db2dcc703c0e500b653ca82273b7bfad8045d85a47081811480159061178a57505015159291505056fe5374616b656452657761726473506f6f6c3a2063616e6e6f7420776974686472617720746865207374616b696e6720746f6b656e5265656e7472616e637947756172643a207265656e7472616e742063616c6c005374616b656452657761726473506f6f6c54696d6564526174653a2063616e6e6f74206368616e676520616e206f6e676f696e67207374616b696e6720706572696f644f776e61626c653a206e6577206f776e657220697320746865207a65726f20616464726573735374616b656452657761726473506f6f6c3a2063616e6e6f74207374616b65207a65726f5374616b656452657761726473506f6f6c3a2063616e6e6f7420776974686472617720746865207265776172647320746f6b656e5374616b656452657761726473506f6f6c54696d6564526174653a20656e6454696d65206d7573742062652067726561746572207468616e20737461727454696d655374616b656452657761726473506f6f6c3a2063616e6e6f74207769746864726177207a65726f5374616b656452657761726473506f6f6c54696d6564526174653a20737461727454696d65206d7573742062652067726561746572207468616e207468652063757272656e7420626c6f636b2074696d65536166654d6174683a206d756c7469706c69636174696f6e206f766572666c6f774f776e61626c653a2063616c6c6572206973206e6f7420746865206f776e65725374616b656452657761726473506f6f6c54696d6564526174653a2063757272656e74207265776172647320646973747269627574696f6e20706572696f6420686173206e6f742079657420626567756e5374616b656452657761726473506f6f6c3a2063616e6e6f74207374616b652066726f6d20746865207a65726f20616464726573735361666545524332303a204552433230206f7065726174696f6e20646964206e6f742073756363656564a26469706673582212209bdd2d5b5bcf59e2c603aad88d97ca934e47555d74f01ad14ffd50ba10b95e2464736f6c634300070300335374616b656452657761726473506f6f6c3a207374616b696e6720746f6b656e206861732066617220746f6f206d616e7920646563696d616c73",
  "devdoc": {
    "kind": "dev",
    "methods": {
      "owner()": {
        "details": "Returns the address of the current owner."
      },
      "paused()": {
        "details": "Returns true if the contract is paused, and false otherwise."
      },
      "renounceOwnership()": {
        "details": "Leaves the contract without owner. It will not be possible to call `onlyOwner` functions anymore. Can only be called by the current owner. NOTE: Renouncing ownership will leave the contract without an owner, thereby removing any functionality that is only available to the owner."
      },
      "transferOwnership(address)": {
        "details": "Transfers ownership of the contract to a new account (`newOwner`). Can only be called by the current owner."
      }
    },
    "version": 1
  },
  "userdoc": {
    "kind": "user",
    "methods": {},
    "version": 1
  },
  "storageLayout": {
    "storage": [
      {
        "astId": 996,
        "contract": "contracts/StakedRewardsPoolTimedRate.sol:StakedRewardsPoolTimedRate",
        "label": "_status",
        "offset": 0,
        "slot": "0",
        "type": "t_uint256"
      },
      {
        "astId": 30,
        "contract": "contracts/StakedRewardsPoolTimedRate.sol:StakedRewardsPoolTimedRate",
        "label": "_owner",
        "offset": 0,
        "slot": "1",
        "type": "t_address"
      },
      {
        "astId": 913,
        "contract": "contracts/StakedRewardsPoolTimedRate.sol:StakedRewardsPoolTimedRate",
        "label": "_paused",
        "offset": 20,
        "slot": "1",
        "type": "t_bool"
      },
      {
        "astId": 1055,
        "contract": "contracts/StakedRewardsPoolTimedRate.sol:StakedRewardsPoolTimedRate",
        "label": "_rewards",
        "offset": 0,
        "slot": "2",
        "type": "t_mapping(t_address,t_uint256)"
      },
      {
        "astId": 1057,
        "contract": "contracts/StakedRewardsPoolTimedRate.sol:StakedRewardsPoolTimedRate",
        "label": "_stakingTokenDecimals",
        "offset": 0,
        "slot": "3",
        "type": "t_uint8"
      },
      {
        "astId": 1059,
        "contract": "contracts/StakedRewardsPoolTimedRate.sol:StakedRewardsPoolTimedRate",
        "label": "_rewardsToken",
        "offset": 1,
        "slot": "3",
        "type": "t_contract(IERC20)478"
      },
      {
        "astId": 1061,
        "contract": "contracts/StakedRewardsPoolTimedRate.sol:StakedRewardsPoolTimedRate",
        "label": "_stakingToken",
        "offset": 0,
        "slot": "4",
        "type": "t_contract(IERC20)478"
      },
      {
        "astId": 1063,
        "contract": "contracts/StakedRewardsPoolTimedRate.sol:StakedRewardsPoolTimedRate",
        "label": "_stakingTokenBase",
        "offset": 0,
        "slot": "5",
        "type": "t_uint256"
      },
      {
        "astId": 1067,
        "contract": "contracts/StakedRewardsPoolTimedRate.sol:StakedRewardsPoolTimedRate",
        "label": "_balances",
        "offset": 0,
        "slot": "6",
        "type": "t_mapping(t_address,t_uint256)"
      },
      {
        "astId": 1069,
        "contract": "contracts/StakedRewardsPoolTimedRate.sol:StakedRewardsPoolTimedRate",
        "label": "_totalSupply",
        "offset": 0,
        "slot": "7",
        "type": "t_uint256"
      },
      {
        "astId": 1514,
        "contract": "contracts/StakedRewardsPoolTimedRate.sol:StakedRewardsPoolTimedRate",
        "label": "_accruedRewardPerToken",
        "offset": 0,
        "slot": "8",
        "type": "t_uint256"
      },
      {
        "astId": 1518,
        "contract": "contracts/StakedRewardsPoolTimedRate.sol:StakedRewardsPoolTimedRate",
        "label": "_accruedRewardPerTokenPaid",
        "offset": 0,
        "slot": "9",
        "type": "t_mapping(t_address,t_uint256)"
      },
      {
        "astId": 1520,
        "contract": "contracts/StakedRewardsPoolTimedRate.sol:StakedRewardsPoolTimedRate",
        "label": "_lastUpdateTime",
        "offset": 0,
        "slot": "10",
        "type": "t_uint256"
      },
      {
        "astId": 1522,
        "contract": "contracts/StakedRewardsPoolTimedRate.sol:StakedRewardsPoolTimedRate",
        "label": "_periodEndTime",
        "offset": 0,
        "slot": "11",
        "type": "t_uint256"
      },
      {
        "astId": 1524,
        "contract": "contracts/StakedRewardsPoolTimedRate.sol:StakedRewardsPoolTimedRate",
        "label": "_periodStartTime",
        "offset": 0,
        "slot": "12",
        "type": "t_uint256"
      },
      {
        "astId": 1526,
        "contract": "contracts/StakedRewardsPoolTimedRate.sol:StakedRewardsPoolTimedRate",
        "label": "_rewardRate",
        "offset": 0,
        "slot": "13",
        "type": "t_uint256"
      }
    ],
    "types": {
      "t_address": {
        "encoding": "inplace",
        "label": "address",
        "numberOfBytes": "20"
      },
      "t_bool": {
        "encoding": "inplace",
        "label": "bool",
        "numberOfBytes": "1"
      },
      "t_contract(IERC20)478": {
        "encoding": "inplace",
        "label": "contract IERC20",
        "numberOfBytes": "20"
      },
      "t_mapping(t_address,t_uint256)": {
        "encoding": "mapping",
        "key": "t_address",
        "label": "mapping(address => uint256)",
        "numberOfBytes": "32",
        "value": "t_uint256"
      },
      "t_uint256": {
        "encoding": "inplace",
        "label": "uint256",
        "numberOfBytes": "32"
      },
      "t_uint8": {
        "encoding": "inplace",
        "label": "uint8",
        "numberOfBytes": "1"
      }
    }
  },
  "gasEstimates": {
    "creation": {
      "codeDepositCost": "1442800",
      "executionCost": "infinite",
      "totalCost": "infinite"
    },
    "external": {
      "accruedRewardPerToken()": "infinite",
      "addToRewardsAllocation(uint256)": "infinite",
      "balanceOf(address)": "1232",
      "earned(address)": "infinite",
      "exit()": "infinite",
      "getReward()": "infinite",
      "hasEnded()": "1056",
      "hasStarted()": "1058",
      "lastTimeRewardApplicable()": "2047",
      "owner()": "1082",
      "pause()": "infinite",
      "paused()": "1095",
      "periodDuration()": "infinite",
      "periodEndTime()": "1065",
      "periodStartTime()": "1065",
      "recoverUnsupportedERC20(address,address,uint256)": "infinite",
      "renounceOwnership()": "infinite",
      "rewardsToken()": "1137",
      "setNewPeriod(uint256,uint256)": "infinite",
      "stake(uint256)": "infinite",
      "stakingToken()": "1104",
      "stakingTokenDecimals()": "1058",
      "timeRemainingInPeriod()": "infinite",
      "totalSupply()": "1090",
      "transferOwnership(address)": "infinite",
      "unpause()": "infinite",
      "updateReward()": "infinite",
      "updateRewardFor(address)": "infinite",
      "withdraw(uint256)": "infinite"
    },
    "internal": {
      "_addToRewardsAllocation(uint256)": "infinite",
      "_updateAccrual()": "infinite",
      "_updateRewardFor(address)": "infinite"
    }
  }
}